{
  "transactions": [
    {
      "hash": "0xb8e99246b4405f149c4a7f729e290fc95d102c9e9ffc7bc58f55dbd37d0f8fd1",
      "transactionType": "CALL",
      "contractName": null,
      "contractAddress": "0xf80cede8979b8f881b997d4de2ed2937326db660",
      "function": "mintNft(string)",
      "arguments": [
        "\"https://ipfs.io/ipfs/QmSsYRx3LpDAb1GZQm7zZ1AuHZjfbPkD6J7s9r41xu1mf8?filename=pug.png\""
      ],
      "transaction": {
        "from": "0x9110ec73cf857483af9bbd9aee7ade0cebcb98ce",
        "to": "0xf80cede8979b8f881b997d4de2ed2937326db660",
        "gas": "0x3d5e1",
        "value": "0x0",
        "input": "0xda86f4a90000000000000000000000000000000000000000000000000000000000000020000000000000000000000000000000000000000000000000000000000000005468747470733a2f2f697066732e696f2f697066732f516d5373595278334c7044416231475a516d377a5a314175485a6a6662506b44364a3773397234317875316d66383f66696c656e616d653d7075672e706e67000000000000000000000000",
        "nonce": "0x32",
        "chainId": "0xaa36a7"
      },
      "additionalContracts": [],
      "isFixedGasLimit": false
    }
  ],
  "receipts": [
    {
      "status": "0x1",
      "cumulativeGasUsed": "0x9637c8",
      "logs": [
        {
          "address": "0xf80cede8979b8f881b997d4de2ed2937326db660",
          "topics": [
            "0xddf252ad1be2c89b69c2b068fc378daa952ba7f163c4a11628f55a4df523b3ef",
            "0x0000000000000000000000000000000000000000000000000000000000000000",
            "0x0000000000000000000000009110ec73cf857483af9bbd9aee7ade0cebcb98ce",
            "0x0000000000000000000000000000000000000000000000000000000000000000"
          ],
          "data": "0x",
          "blockHash": "0x67ea8d66d0ed2215ef4727ce7afd16ef7b72129b87928ee44c72be08dab7869e",
          "blockNumber": "0x63a5d1",
          "transactionHash": "0xb8e99246b4405f149c4a7f729e290fc95d102c9e9ffc7bc58f55dbd37d0f8fd1",
          "transactionIndex": "0x41",
          "logIndex": "0x5b",
          "removed": false
        }
      ],
      "logsBloom": "0x00000000000000000000000000000000000000000000000000000000000000000000000000100000000000000000000000000000000000000000000000000000000000000000000000000008000000000000000000000000000000000000000000000000020000000000000004000800000000000000000000000010000000000001000000000080000000000000000000000000000000000000000000000000000000000000000000000100000000000000000000000000000000000000000000000002000000000000000000000000000000000000000000000000020020000000000000000000000000000000000000000000000000000000000000000000",
      "type": "0x2",
      "transactionHash": "0xb8e99246b4405f149c4a7f729e290fc95d102c9e9ffc7bc58f55dbd37d0f8fd1",
      "transactionIndex": "0x41",
      "blockHash": "0x67ea8d66d0ed2215ef4727ce7afd16ef7b72129b87928ee44c72be08dab7869e",
      "blockNumber": "0x63a5d1",
      "gasUsed": "0x2c6de",
      "effectiveGasPrice": "0x6a26933c3",
      "from": "0x9110ec73cf857483af9bbd9aee7ade0cebcb98ce",
      "to": "0xf80cede8979b8f881b997d4de2ed2937326db660",
      "contractAddress": null
    }
  ],
  "libraries": [],
  "pending": [],
  "returns": {},
  "timestamp": 1724071470,
  "chain": 11155111,
  "commit": "571128a"
}