{
  "transactions": [
    {
      "hash": "0x35f003575e6d858848b74582901201377a3ac19ba2a4f77925ec39993a65435a",
      "transactionType": "CALL",
      "contractName": null,
      "contractAddress": "0xe543b92c1f5bc388065d9733ceafaa54f3b6406e",
      "function": "mintNft(string)",
      "arguments": [
        "\"https://ipfs.io/ipfs/QmSsYRx3LpDAb1GZQm7zZ1AuHZjfbPkD6J7s9r41xu1mf8?filename=pug.png\""
      ],
      "transaction": {
        "from": "0x9110ec73cf857483af9bbd9aee7ade0cebcb98ce",
        "to": "0xe543b92c1f5bc388065d9733ceafaa54f3b6406e",
        "gas": "0x3d5e1",
        "value": "0x0",
        "input": "0xda86f4a90000000000000000000000000000000000000000000000000000000000000020000000000000000000000000000000000000000000000000000000000000005468747470733a2f2f697066732e696f2f697066732f516d5373595278334c7044416231475a516d377a5a314175485a6a6662506b44364a3773397234317875316d66383f66696c656e616d653d7075672e706e67000000000000000000000000",
        "nonce": "0x2c",
        "chainId": "0xaa36a7"
      },
      "additionalContracts": [],
      "isFixedGasLimit": false
    }
  ],
  "receipts": [
    {
      "status": "0x1",
      "cumulativeGasUsed": "0xc4de52",
      "logs": [
        {
          "address": "0xe543b92c1f5bc388065d9733ceafaa54f3b6406e",
          "topics": [
            "0xddf252ad1be2c89b69c2b068fc378daa952ba7f163c4a11628f55a4df523b3ef",
            "0x0000000000000000000000000000000000000000000000000000000000000000",
            "0x0000000000000000000000009110ec73cf857483af9bbd9aee7ade0cebcb98ce",
            "0x0000000000000000000000000000000000000000000000000000000000000000"
          ],
          "data": "0x",
          "blockHash": "0x45061f5c8c6cca5a1567195a99c2e4c89ba7d1a1be56022105a72c4954e6d997",
          "blockNumber": "0x63a55d",
          "transactionHash": "0x35f003575e6d858848b74582901201377a3ac19ba2a4f77925ec39993a65435a",
          "transactionIndex": "0x47",
          "logIndex": "0x88",
          "removed": false
        }
      ],
      "logsBloom": "0x00000000000000000000000000000000000080000000000000000000000000000000000000100000000000000000000000000000000000000000000000000000000000000000000000000008000000000000000000000000000000000000000000000000020000000000000004000800000000000000000000000010000000000000000000000080000000000000000000000000000010000000000000000000000000000000000000000000000000000000000000000000000000000000000000000002000000000000000000000000000000000000000000000008000020000000000000000000000000000000000000000000000000000000000000000000",
      "type": "0x2",
      "transactionHash": "0x35f003575e6d858848b74582901201377a3ac19ba2a4f77925ec39993a65435a",
      "transactionIndex": "0x47",
      "blockHash": "0x45061f5c8c6cca5a1567195a99c2e4c89ba7d1a1be56022105a72c4954e6d997",
      "blockNumber": "0x63a55d",
      "gasUsed": "0x2c6de",
      "effectiveGasPrice": "0x20154267f",
      "from": "0x9110ec73cf857483af9bbd9aee7ade0cebcb98ce",
      "to": "0xe543b92c1f5bc388065d9733ceafaa54f3b6406e",
      "contractAddress": null
    }
  ],
  "libraries": [],
  "pending": [],
  "returns": {},
  "timestamp": 1724069885,
  "chain": 11155111,
  "commit": "571128a"
}