{
  "transactions": [
    {
      "hash": "0x90f903f672e9e66fa128f3f95436bd67d18f57489f72e2a85609c3b5789f277c",
      "transactionType": "CALL",
      "contractName": null,
      "contractAddress": "0xf80cede8979b8f881b997d4de2ed2937326db660",
      "function": "mintNft(string)",
      "arguments": [
        "\"https://ipfs.io/ipfs/QmU22yVv6mHWqe2a9iXY1PcNNrAz8fJMZwbQhTNpiJWuXB?filename=Screenshot%20from%202024-08-17%2020-03-27.png\""
      ],
      "transaction": {
        "from": "0x9110ec73cf857483af9bbd9aee7ade0cebcb98ce",
        "to": "0xf80cede8979b8f881b997d4de2ed2937326db660",
        "gas": "0x3983c",
        "value": "0x0",
        "input": "0xda86f4a90000000000000000000000000000000000000000000000000000000000000020000000000000000000000000000000000000000000000000000000000000007a68747470733a2f2f697066732e696f2f697066732f516d553232795676366d485771653261396958593150634e4e72417a38664a4d5a77625168544e70694a577558423f66696c656e616d653d53637265656e73686f7425323066726f6d253230323032342d30382d313725323032302d30332d32372e706e67000000000000",
        "nonce": "0x33",
        "chainId": "0xaa36a7"
      },
      "additionalContracts": [],
      "isFixedGasLimit": false
    }
  ],
  "receipts": [
    {
      "status": "0x1",
      "cumulativeGasUsed": "0xf6b390",
      "logs": [
        {
          "address": "0xf80cede8979b8f881b997d4de2ed2937326db660",
          "topics": [
            "0xddf252ad1be2c89b69c2b068fc378daa952ba7f163c4a11628f55a4df523b3ef",
            "0x0000000000000000000000000000000000000000000000000000000000000000",
            "0x0000000000000000000000009110ec73cf857483af9bbd9aee7ade0cebcb98ce",
            "0x0000000000000000000000000000000000000000000000000000000000000001"
          ],
          "data": "0x",
          "blockHash": "0x01e69e31fe5eaeaa81cdace4311fe41393bf2a92544cfd1537bdeda933e36ab7",
          "blockNumber": "0x63a5f1",
          "transactionHash": "0x90f903f672e9e66fa128f3f95436bd67d18f57489f72e2a85609c3b5789f277c",
          "transactionIndex": "0x5f",
          "logIndex": "0xa4",
          "removed": false
        }
      ],
      "logsBloom": "0x00000000000000000000000000000000000000000000000000000000000000000000000000100000000000000000000000000000000000000000000000040000000000000000000000000008000000000000000000040000000000000000000000000000020000000000000004000800000000000000000000000010000000000001000000000080000000000000000000000000000000000000000000000000000000000000000000000100000000000000000000000000000000000000000000000002000000000000000000000000000000000000000000000000020060000000000000000000000000000000000000000000000000000000000000000000",
      "type": "0x2",
      "transactionHash": "0x90f903f672e9e66fa128f3f95436bd67d18f57489f72e2a85609c3b5789f277c",
      "transactionIndex": "0x5f",
      "blockHash": "0x01e69e31fe5eaeaa81cdace4311fe41393bf2a92544cfd1537bdeda933e36ab7",
      "blockNumber": "0x63a5f1",
      "gasUsed": "0x29a3d",
      "effectiveGasPrice": "0x6570c5316",
      "from": "0x9110ec73cf857483af9bbd9aee7ade0cebcb98ce",
      "to": "0xf80cede8979b8f881b997d4de2ed2937326db660",
      "contractAddress": null
    }
  ],
  "libraries": [],
  "pending": [],
  "returns": {},
  "timestamp": 1724071912,
  "chain": 11155111,
  "commit": "571128a"
}